:10800000D288740090802C120145D2A8D2AFD2B28F
:108010007B007D10EB12013F740D120148EB120141
:108020001BF4F5901201420BDDEA80E4C0E012017E
:10803000360D0A4D756C7469706C69636163696FA4
:108040006E20646520646F73206E756D65726F734A
:108050000D0A50726F662E3A204D617274696E205F
:108060004372757A0D0A00741475F004A4F5421277
:1080700001360D0A456C20726573756C7461646F0E
:10808000206465206C61206D756C7469706C696327
:108090006163696F6E20646520323020706F7220DA
:1080A000342065733A001280AF120115D0E032E53A
:1080B0004275F00A84F54085F0412430120148E50C
:0780C000F0243012014822F8
:00000001FF
