:10800000C288740090802E120145D2A8D2B2C28AD2
:10801000740290805A120145D2AAD2AFD2B3D29044
:1080200074C8120118C29074C812011880F0C2A856
:10803000C0E074FA1201181201360D0A5365206966
:108040006E74657272756D70652064657364652009
:1080500050332E3200D0E0D2A832C2AAC0E074FA67
:108060001201181201360D0A536520696E7465728B
:1080700072756D70652064657364652050332E33AE
:0680800000D0E0D2AA329C
:00000001FF
