:10800000D288740090802C120145D2A8D2AFD2B28F
:108010007B007D10EB12013F740D120148EB120141
:108020001BF4F5901201420BDDEA80E4C0E012017E
:10803000360D0A566F792061206D756C7469706C0D
:1080400069636172206C6F73206E756D65726F73FA
:1080500020342079203500740475F005A4F5301221
:1080600001360D0A456C20726573756C7461646F1E
:108070002065733A200D0A00E53075F00A8424303B
:10808000120148E5F024301201481201360D0A00B1
:03809000D0E0320B
:00000001FF
